:100000000C9462000C948A000C948A000C948A0070
:100010000C948A000C948A000C948A000C948A0038
:100020000C948A000C948A000C948A000C948A0028
:100030000C948A000C948A000C948A000C948A0018
:100040000C9499020C948A000C9409030C94E3021A
:100050000C948A000C948A000C948A000C948A00F8
:100060000C948A000C948A000000000023002600F3
:10007000290000000000240027002A0000000000E2
:10008000250028002B0004040404040404040202D4
:100090000202020203030303030301020408102007
:1000A0004080010204081020010204081020000012
:1000B0000008000201000003040700000000000027
:1000C0000000700411241FBECFEFD8E0DEBFCDBF0B
:1000D00012E0A0E0B1E0EAE4F9E002C005900D9280
:1000E000A030B107D9F722E0A0E0B2E001C01D9234
:1000F000A63AB207E1F710E0C2E6D0E004C02197CB
:10010000FE010E949D04C136D107C9F70E943B033E
:100110000C94A3040C940000833081F028F4813007
:1001200099F08230A9F008958730A9F08830C9F09D
:100130008430B1F4809180008F7D03C08091800075
:100140008F7780938000089584B58F7784BD08955C
:1001500084B58F7DFBCF8091B0008F778093B00006
:1001600008958091B0008F7DF9CF1F93CF93DF93D7
:10017000282F30E0F901E255FF4F8491F901E6564E
:10018000FF4FD491F901EA57FF4FC491CC23A9F056
:10019000162F81110E948C00EC2FF0E0EE0FFF1F54
:1001A000E458FF4FA591B4918FB7F894EC911111D9
:1001B00008C0D095DE23DC938FBFDF91CF911F91D4
:1001C0000895DE2BF8CFCF93DF9390E0FC01E65645
:1001D000FF4F24918A579F4FFC0184918823D1F0CF
:1001E00090E0880F991FFC01EE58FF4FA591B49144
:1001F000FC01E458FF4FC591D49161110EC09FB727
:10020000F8948C91E22FE0958E238C932881E22341
:10021000E8839FBFDF91CF9108958FB7F894EC9159
:10022000E22BEC938FBFF6CF3FB7F8948091050295
:1002300090910602A0910702B091080226B5A89BF2
:1002400005C02F3F19F00196A11DB11D3FBFBA2F68
:10025000A92F982F8827BC01CD01620F711D811D28
:10026000911D42E0660F771F881F991F4A95D1F7AD
:1002700008958F929F92AF92BF92CF92DF92EF92AA
:10028000FF920E9414014B015C0180E1C82E87E2BD
:10029000D82EE12CF12C0E941401681979098A09E1
:1002A0009B09683E734081059105A8F321E0C21ABD
:1002B000D108E108F10888EE880E83E0981EA11CA1
:1002C000B11CC114D104E104F10429F7FF90EF90AF
:1002D000DF90CF90BF90AF909F908F900895AF9296
:1002E000BF92CF92DF92EF92FF920F931F93CF9323
:1002F000DF936C017B018B01040F151FEB015E0185
:10030000AE18BF08C017D10759F06991D601ED9119
:10031000FC910190F081E02DC6010995892B79F7B8
:10032000C501DF91CF911F910F91FF90EF90DF906A
:10033000CF90BF90AF900895FC01538D448D252F31
:1003400030E0842F90E0821B930B541710F0CF966F
:10035000089501970895FC01918D828D981761F0A1
:10036000A28DAE0FBF2FB11D5D968C91928D9F5FB8
:100370009F73928F90E008958FEF9FEF0895FC0197
:10038000918D828D981731F0828DE80FF11D858D4A
:1003900090E008958FEF9FEF0895FC01918D228DDD
:1003A000892F90E0805C9F4F821B91098F73992762
:1003B000089589E092E00E94CD0121E0892B09F4A3
:1003C00020E0822F089580E090E0892B29F00E94A0
:1003D000D90181110C9400000895FC01A48DA80F8F
:1003E000B92FB11DA35ABF4F2C91848D90E0019677
:1003F0008F739927848FA689B7892C93A089B18997
:100400008C91837080648C93938D848D981306C037
:100410000288F389E02D80818F7D80830895EF929B
:10042000FF920F931F93CF93DF93EC0181E0888FAE
:100430009B8D8C8D98131AC0E889F989808185FF7E
:1004400015C09FB7F894EE89FF896083E889F98920
:1004500080818370806480839FBF81E090E0DF9122
:10046000CF911F910F91FF90EF900895F62E0B8D75
:1004700010E00F5F1F4F0F731127E02E8C8D8E1130
:100480000CC00FB607FCFACFE889F989808185FF97
:10049000F5CFCE010E94ED01F1CFEB8DEC0FFD2FDA
:1004A000F11DE35AFF4FF0829FB7F8940B8FEA8952
:1004B000FB8980818062CFCFCF93DF93EC01888D61
:1004C0008823B9F0AA89BB89E889F9898C9185FDCF
:1004D00003C0808186FD0DC00FB607FCF7CF8C915D
:1004E00085FFF2CF808185FFEDCFCE010E94ED0127
:1004F000E9CFDF91CF910895CF93DF93FC01019075
:100500000020E9F73197AF01481B590BBC0189E086
:1005100092E00E946F01EC0142E050E064E171E082
:1005200089E092E00E946F018C0F9D1FDF91CF91B7
:1005300008951F920F920FB60F9211242F933F939D
:100540008F939F93AF93BF9380910102909102028A
:10055000A0910302B09104023091000223E0230F26
:100560002D3758F50196A11DB11D209300028093EF
:10057000010290930202A0930302B09304028091BF
:10058000050290910602A0910702B091080201961F
:10059000A11DB11D8093050290930602A09307024E
:1005A000B0930802BF91AF919F918F913F912F918E
:1005B0000F900FBE0F901F90189526E8230F0296FC
:1005C000A11DB11DD2CF1F920F920FB60F92112411
:1005D0002F933F934F935F936F937F938F939F934B
:1005E000AF93BF93EF93FF9389E092E00E94ED01F8
:1005F000FF91EF91BF91AF919F918F917F916F91FB
:100600005F914F913F912F910F900FBE0F901F90D0
:1006100018951F920F920FB60F9211242F938F935C
:100620009F93EF93FF93E0911902F0911A0280815A
:10063000E0911F02F091200282FD1BC09081809109
:1006400022028F5F8F7320912302821741F0E09185
:100650002202F0E0E75FFD4F958F80932202FF9129
:10066000EF919F918F912F910F900FBE0F901F9040
:1006700018958081F4CF789484B5826084BD84B568
:10068000816084BD85B5826085BD85B5816085BD8D
:1006900080916E00816080936E0010928100809145
:1006A00081008260809381008091810081608093CD
:1006B0008100809180008160809380008091B100F2
:1006C00084608093B1008091B00081608093B0001D
:1006D00080917A00846080937A0080917A008260B1
:1006E00080937A0080917A00816080937A00809173
:1006F0007A00806880937A001092C100E09119021C
:10070000F0911A0282E08083E0911502F0911602C6
:100710001082E0911702F09118028FEC8083109202
:100720002102E0911D02F0911E0286E08083E0919B
:100730001B02F0911C02808180618083E0911B028A
:10074000F0911C02808188608083E0911B02F0910F
:100750001C02808180688083E0911B02F0911C0262
:1007600080818F7D808360E082E00E94E30061E011
:1007700089E00E94E30061E083E00E94E30061E021
:1007800084E00E94E30061E08AE00E94E30061E00F
:1007900085E00E94E30061E086E00E94E30061E002
:1007A00089E00E94E30061E089E00E94B50061E019
:1007B0008AE00E94E30061E08AE00E94B50087E1E0
:1007C00091E00E947C02C0EBD0E00CE910E098E8D8
:1007D000E92E90E0F92E20E0C22E20E0D22EFE017C
:1007E0008491F801A490F701B490BB2009F45FC094
:1007F00081110E948C00EB2DF0E0EE0FFF1FE859F5
:10080000FF4FA591B4918C91A82231E020E009F42A
:1008100030E0832F922F20910001309101012817A1
:100820003907C9F19093010180930001892B09F0E8
:1008300041C087E291E00E947C0281E591E00E9444
:100840007C0261E083E00E94B50060E084E00E94E9
:10085000B50061E085E00E94B50060E086E00E949E
:10086000B5000E94390181EC91E00E947C028CEE7F
:1008700091E00E947C0260E083E00E94B50060E0AD
:1008800084E00E94B50060E085E00E94B50060E071
:1008900086E00E94B500C114D10409F4A0CF0E94E3
:1008A000D901882309F49BCF0E94000098CF90E0E3
:1008B00080E0B1CF81E791E00E947C028CE991E079
:1008C0000E947C0260E083E00E94B50061E084E069
:1008D0000E94B50060E085E00E94B50061E0BECFF7
:1008E000E9E0F2E01382128288EE93E0A0E0B0E04B
:1008F00084839583A683B78386E091E09183808388
:1009000085EC90E09587848784EC90E097878687D4
:1009100080EC90E0918B808B81EC90E0938B828BCC
:1009200082EC90E0958B848B86EC90E0978B868BA5
:10093000118E128E138E148E0895EE0FFF1F0590E8
:0A094000F491E02D0994F894FFCF24
:10094A000100000000000F026F019C015C02CD0152
:10095A00AB01BF010D0A0053797374656D205265AE
:10096A006164792E2E2E00F09F8CA7205261696E49
:10097A002044657465637465642120526F746174E0
:10098A00696E6720436C6F636B776973652E2E2ED1
:10099A0000E29EA1EFB88F204D6F746F7220526FE4
:1009AA00746174696E6720436C6F636B77697365F2
:1009BA0000E29880EFB88F204E6F205261696E2155
:1009CA0020526F746174696E6720416E74692D4399
:1009DA006C6F636B776973652E2E2E00E2AC85EF20
:1009EA00B88F204D6F746F7220526F746174696E84
:1009FA006720416E74692D436C6F636B7769736509
:100A0A0000F09F9B91204D6F746F72732053746F27
:100A1A00707065642E2057616974696E6720666F0D
:100A2A0072206368616E67652E2E2E00F09F9B917F
:100A3A00204D6F746F72732053746F707065640009
:00000001FF
